:020000040000FA
:0100000001FE
:0100010001FD
:0100020001FC
:0100030001FB
:0100040001FA
:0100050001F9
:0100060001F8
:0100070001F7
:0100080001F6
:0100090001F5
:01000A0001F4
:01000B0001F3
:01000C0001F2
:01000D0001F1
:01000E0001F0
:01000F0001EF
:0100100001EE
:0100110001ED
:0100120001EC
:0100130001EB
:0100140001EA
:0100150001E9
:0100160001E8
:0100170001E7
:0100180001E6
:0100190001E5
:01001A0001E4
:01001B0001E3
:01001C0001E2
:01001D0001E1
:01001E0001E0
:01001F0001DF
:0100200001DE
:0100210001DD
:0100220001DC
:0100230001DB
:0100240001DA
:0100250001D9
:0100260001D8
:0100270001D7
:0100280001D6
:0100290001D5
:01002A0001D4
:01002B0001D3
:01002C0001D2
:01002D0001D1
:01002E0001D0
:01002F0001CF
:0100300001CE
:0100310001CD
:0100320001CC
:0100330001CB
:0100340001CA
:0100350001C9
:0100360001C8
:0100370001C7
:0100380001C6
:0100390001C5
:01003A0001C4
:01003B0001C3
:01003C0001C2
:01003D0001C1
:01003E0001C0
:01003F0001BF
:0100400001BE
:0100410001BD
:0100420001BC
:0100430001BB
:0100440001BA
:0100450001B9
:0100460001B8
:0100470001B7
:0100480001B6
:0100490000B6
:01004A0000B5
:01004B0000B4
:01004C0000B3
:01004D0000B2
:01004E0000B1
:01004F0000B0
:0100500000AF
:0100510000AE
:0100520000AD
:0100530000AC
:0100540000AB
:0100550000AA
:0100560000A9
:0100570000A8
:0100580000A7
:0100590000A6
:01005A0000A5
:01005B0000A4
:01005C0000A3
:01005D0000A2
:01005E0000A1
:01005F0000A0
:01006000009F
:01006100009E
:01006200009D
:01006300009C
:01006400009B
:01006500009A
:010066000099
:010067000098
:010068000097
:010069000096
:01006A000095
:01006B000094
:01006C000093
:01006D000092
:01006E000091
:01006F000090
:01007000008F
:01007100008E
:01007200008D
:01007300008C
:01007400008B
:01007500008A
:010076000089
:010077000088
:010078000087
:010079000086
:01007A000085
:01007B000084
:01007C000083
:01007D000082
:01007E000081
:01007F000080
:01008000007F
:01008100007E
:01008200007D
:01008300007C
:01008400007B
:01008500007A
:010086000079
:010087000078
:010088000077
:010089000076
:01008A000075
:01008B000074
:01008C000073
:01008D000072
:01008E000071
:01008F000070
:00000001ff
